:100000000C94F31D0C94241E0C94241E0C94241E9A
:100010000C94241E0C94241E0C94241E0C94241E58
:100020000C94241E0C94241E0C94241E0C94241E48
:100030000C94241E0C94241E0C94241E0C94241E38
:100040000C94241E0C94241E0C94241E0C94241E28
:100050000C94241E0C94241E0C94241E0C94303EEC
:100060000C94241E0C94303D0C94073D0C94241EDB
:100070000C94241E0C94241E0C94241E0C94241EF8
:100080000C94241E0C94241E0C94241E0C94241EE8
:100090000C94DE3C0C94B53C0C94241E0C947A3EDB
:1000A0000C94241E0C94241E0C94241E0C94241EC8
:1000B0000C94241E0C94241E0C94241E0C94241EB8
:1000C0000C94241E0C94241E0C94241E0C94241EA8
:1000D0000C94241E0C94241E0C94241E0C94241E98
:1000E0000C94241EF62CF92CFC2CFF2C022D052D33
:1000F000082D0B2D0E2D112D142D172DD958075904
:100100002D5953598159DF59625A625A625A625ABB
:10011000625A625A3D5AF039F339E239E639EC391C
:100120002A3AF739FB39013A053A093A0F3A133AB4
:10013000173A2A3A1D3A213A253A124D1A4D224DC4
:100140002A4D324D3A4D4F4D4F4D4F4D4F4D4F4D26
:100150004F4D424D684D704D784D804D884D904DBE
:10016000B54DB54DB54DB54DB54DB54D984DA24DAF
:10017000A84DB54DB54DB54DB54DAE4D084AD73B23
:100180003BCE016E84BCBFFDC12F3D6C74319ABD66
:1001900056833DDA3D00C77F11BED9E4BB4C3E918A
:1001A0006BAAAABE000000803F05A84CCDB2D44E79
:1001B000B93836A9020C50B9918688083CA6AAAA7B
:1001C0002ABE000000803F0664EC1B3C04BC163EC7
:1001D0003BE5B93CC93C37C29E5A3D660498083E8F
:1001E000EA69AAAA3E000000803F00407A10F35A54
:1001F00000A0724E18090010A5D4E80000E8764867
:10020000170000E40B54020000CA9A3B000000E112
:10021000F505000080969800000040420F000000A5
:10022000A08601000000102700000000E803000085
:1002300000006400000000000A000000000001004F
:10024000000000002C76D888DC674F0823DFC1DF70
:10025000AE59E1B1B796E5E3E453C63AE651997673
:1002600096E8E6C28426EB898C9B62ED407C6FFCAD
:10027000EFBC9C9F40F2BAA56FA5F490055A2AF7EF
:100280005C936B6CF9676DC11BFCE0E40D47FEF5F8
:1002900020E6B500D0ED902E030094357705008060
:1002A000841E080000204E0A000000C80C333333BF
:1002B000330F986E12831141EF8D2114893BE6555F
:1002C00016CFFEE6DB18D1844B381BF77C1D901D42
:1002D000A4BBE424203284725E228100C9F124ECA4
:1002E000A1E53D270000E08107000000FC8F07002A
:1002F00000800FFC070000C0F7F3070000C0FFFFFD
:1003000000000060F88F01000060F0C30F000030B3
:10031000C0C007000010C0E603000018C09F060020
:100320000008C0070400000CC0070C000004C00057
:1003300008000006C00018000002C0001000000302
:10034000C00030000001C00020008001C00060003B
:100350008000C0004000C000C000C0004000C000DD
:1003600080006000C00080012000C000000130005B
:10037000C00000031000C00000031800C000000609
:100380000800C00000060C00C000000C0400C00003
:10039000000C0600C00000180600C0000018030092
:1003A000C00000300700C00000381E00C000001C64
:1003B0003800C0000007F000C000C003C003C00048
:1003C000F0000007C0003800001CC0000E000078DC
:1003D000C080070000E0C0C001000080C3700000C2
:1003E0000000CF1C00000000FC0F00000000F00324
:1003F00000000000C00000000078E0010000007074
:10040000FC0F000000F01F3E000000F8E7F10000C4
:1004100000C0FFFF00000078FC8F010000F0F083B7
:10042000010000F0C00003000070D30003000018BA
:10043000FC0006000008F0000600000CF8000C00AC
:100440000004C0000C000006C00018000002C0003C
:1004500018000003C00030000001C000300080011F
:10046000C00060008000C0006000C000C000C0008C
:100470004000C000C0006000C00080012000C0003B
:1004800080013000C00000031000C000000318000D
:10049000C00000060800C00000060C00C000000CF0
:1004A0000400C000000C0600C00000180600C000D8
:1004B00000180300C00000300700C00000380E0024
:1004C000C000001C3800C0000007F000C000C003DE
:1004D000C003C000E0000007C0003800001EC000DC
:1004E0000E000078C080070000E0C0C0010000805E
:1004F000C37000000000CF1C00000000FC0F0000D3
:100500000000F00300000000C00000000000003EFA
:1005100000000000C0F700000000F08007000000AD
:10052000F8C10700000098FF0C000000081C08003C
:1005300000000C0818000000040810000000060865
:1005400030000000020820000000030860000000E6
:100550000108400000800108C00000800008800001
:1005600000C0000880010040000800010060000891
:1005700000030020000800030030000800060010FF
:100580000008000600180008000C00080008000C15
:10059000000C00080008000400080018000600080D
:1005A0000010FF0200080030FF0300080020FF03D6
:1005B00000080060FF0700080030FF1D0008001C55
:1005C000FF3900080007FFE10008800300800308EE
:1005D000E0000C0007083800FC001C081C00F807AD
:1005E00070080700F001C0C90100E003807F00002F
:1005F000C006003E0000809881FF000000F081FFEF
:10060000000000C083FF000000C087FF000000E082
:100610008FFF000000009EFF00000000B0FF000000
:1006200000003E0000000080F701000000F080079D
:10063000000000F0810700000098FF0C0000000897
:100640001C080000000C081800000004081000003E
:1006500000060830000000020820000000030860C7
:100660000000000108400000800108C00000800078
:1006700008800000C0000880010040000800010060
:10068000600008000300200008000200300008009D
:100690000600100008000400100008000C001800FC
:1006A000080008000800080018000C0008001000EE
:1006B00004000800B07F06000800E07F0200080088
:1006C000E07F03000800C07F07000800F07F0C00F7
:1006D0000800F87F38000800CE7FE0000800030023
:1006E000800108C0011800070870001F001C081CCA
:1006F000E00F0070080EC00700E08803C003008010
:10070000EB00F00100007F8098000080FFC00C002B
:100710000080FFC003000080FFE001000080FFF0C8
:1007200003000080FFF801000080FF3C0000008013
:100730007F0400000000007C000000000000F07F4B
:100740000000000000F0FF1F0000000000FFFF0796
:1007500000000000FEFFFF00000000E0FFFF3F0080
:10076000000080FFFFFF03000000F8FFFFFF000014
:1007700000E0FFFFFF0F000000FCFFFFFF03000091
:10078000F0FFFFFF1F000000FFFFFFFF070000FC5E
:10079000FFFFFF7F000080FFFFFFFF1F0000FEFF45
:1007A000FFFFFF0000C0FFFFFFFF3F0000FFFFFF54
:1007B000FFFF0100F0FFFFFFFF7F0080FFFFFFFF53
:1007C000FF0300F8FFFFFFFFFF00C0FFFFFFFFFF79
:1007D0000700FCFFFFFFFFFF01C0FFFFFFFFFF0F50
:1007E00000FCFFFFCFFFFF03E0FFFFFFFFFF1F0045
:1007F000FEFF7F00F0FF03F0FF1F00E0FF3F00FF60
:10080000FF0F0080FF07F0FF030000FF3F80FFFFA6
:10081000030000FF0FF8FF000000FC7FC0FFFF0196
:100820000000FC0FF87F000000F0FFC0FF7F000019
:1008300000F81FFC1F000000C0FFE1FF3F000000A8
:10084000F01FFC0F00000080FFF1FF1F000000E020
:100850003FFC0700000000FFF3FF0F000000C03F57
:10086000FE0700000000FCFFFF07000000C07FFE45
:100870000300000000FCFFFF03000000807FFE017A
:1008800000000000F8FFFF03000000807FFE010071
:10089000000000F0FFFF01000000007FFF000000EB
:1008A0000000E0FFFF0000000000FFFF000000006C
:1008B00000C0FF7F0000000000FFFF0000000000FC
:1008C000C0FF7F0000000000FE7F0000000000E08D
:1008D000FF3F0000000000FE7F0000000000E0FF7E
:1008E0001F0000000000FE7F0000000000F0FF1F5E
:1008F0000000000000FE7F0000000000F8FF0F0075
:1009000000000000FE7F0000000000F8FF0700006C
:10091000000000FE7F0000000000FCFF0700000058
:100920000000FE7F0000000000FEFF03000000004A
:1009300000FFFF0000000000FEFF030000000000B9
:10094000FFFF0000000000FFFF070000000000FFA5
:10095000FE0000000080FFFF0F00000000807FFE0F
:100960000000000080FFFF0F00000000807FFE01FC
:10097000000000C0FFFF1F00000000C07FFE01005C
:100980000000E0FFFF3F00000000C07FFC0300000C
:1009900000F0FFFF7F00000000E03FFC07000000C8
:1009A000F8FFCFFF01000000F03FF80F000000FC4F
:1009B000FF87FF03000000F83FF81F000000FEFF64
:1009C00003FF07000000FC1FF83F000000FFFF03CB
:1009D000FF1F000000FF1FF07F0000C0FFFF01FEAF
:1009E0007F0000C0FF0FE0FF0100F0FFFF00FCFFF1
:1009F0000300F0FF0FE0FF0700FCFF7F00F8FF7F20
:100A000080FFFF07C0FFFFC0FFFF3F00F0FFFFFFB9
:100A1000FFFF0780FFFFFFFFFF3F00E0FFFFFFFF3B
:100A2000FF0300FFFFFFFFFF0F00C0FFFFFFFFFFFF
:100A30000100FEFFFFFFFF070080FFFFFFFFFF0039
:100A400000FCFFFFFFFF030000FFFFFFFF7F000030
:100A5000F8FFFFFFFF010000FEFFFFFF3F0000E087
:100A6000FFFFFFFF000000FCFFFFFF1F0000C0FFB3
:100A7000FFFF3F000000F0FFFFFF07000000FFFF47
:100A8000FF1F000000C0FFFFFF01000000FCFFFF90
:100A90000700000000FFFF7F00000000E0FFFF00F4
:100AA00000000000F8FF0F0000000000FE0F000033
:100AB000000000007F00000012000303040404068D
:100AC00005091100FF10FC10FC00000000010C20C3
:100AD0000500086B2A0E7839EA88B4910E219A48ED
:100AE0000B002B0C7839EA89D50E31B11A002C088D
:100AF00034FBE94C2C002D0718696A1C022E0733C1
:100B00000C6A1C042F10C70AEA2A4A8552A15428ED
:100B1000154AA5003011D809EA4969222D421E253F
:100B2000226D541900310DD809EA49873489587F5C
:100B30003B043212D8096AD144122151AC2A1C4A12
:100B400095C587003316D8096AD1441221512C1556
:100B5000CE017200912811C948003414D8096A875F
:100B6000A5439A44A42293C82487A8580B003513A0
:100B7000D8096A1CC6BA8C467280584C9488642482
:100B8000003615D8096AD144126144AC321A49843E
:100B90001C25221909003712D8096A1CC2AA62A9A9
:100BA000582A968AA56229003815D8096AD14412B4
:100BB00021A34424A389244246894846023914D8F3
:100BC000096AD144122147896845AC12948864248B
:100BD000003A08830C6AD8A10600000004FFFF0059
:100BE00000FEFF07000000FEFFFFFF0F00FFFF07F2
:100BF000000080FFFFFFFFFF07FEFF0F0000C0FFA8
:100C0000FFFFFFFF1FFEFF0F0000C0FFFFFFFFFF02
:100C10003FFCFF1F0000E0FFFFFFFFFF7FFCFF1F07
:100C20000000E0FFFFFFFFFF7FF8FF3F0000F0FF45
:100C3000FFFFFFFFFFF8FF3F0000F0FFFFFFFFFF98
:100C4000FFF0FF7F0000F8FFFFFFFFFFFFF0FF7FD7
:100C50000000F8FFFFFFFFFFFFE0FFFF0000FCFFC9
:100C60001F00C0FFFFE0FFFF0000FCFF0F00C0FF00
:100C7000FFC0FFFF0100FEFF0F00C0FF7FC0FFFFAE
:100C80000100FEFF070080FF7F80FFFF0300FFFFE2
:100C90000700C0FF3F80FFFF0300FFFF0300C0FF0E
:100CA0003F00FFFF0780FFFF0300C0FF1F00FFFFA3
:100CB0000780FFFF0300C0FF1F00FFFF0FC0FFFF03
:100CC0000100E0FF0F00FEFF0FC0FFFF0100E0FF8B
:100CD0000700FEFF1FE0FFFF0000F0FF0300FCFF26
:100CE0001FE0FFFF0000F8FF0100FCFF3FE0FF7F77
:100CF0000000FCFF0000F8FF3FF0FF7F0000FE7FD8
:100D00000000F8FF3FF0FF3F0080FF3F0000F0FFD2
:100D10007FF8FF3F00E0FF1F0000F0FF7FF8FF1F9C
:100D2000FEFFFF070000E0FFFFFCFF1FFEFFFF01CB
:100D30000000E0FFFFFCFF0FFCFF7F000000C0FF92
:100D4000FFFFFF0FFCFF3F000000C0FFFFFFFF079A
:100D5000F8FF3F00000080FFFFFFFF07F8FF7F0064
:100D6000000080FFFFFFFF03F0FF7F00000000FF97
:100D7000FFFFFF03F0FFFF00000000FFFFFFFF0188
:100D8000E0FFFF00000000FEFFFFFF01E0FFFF00AB
:100D9000000000FEFFFFFF00C0FFFF01000000FC9D
:100DA000FFFFFF00C0FFFF01000000FCFFFF7F000E
:100DB00080FFFF03000000F8FFFF7F0080FFFF03BC
:100DC000000000F8FFFF3F0000FFFF07000000F0F9
:100DD000FFFF3F0000FFFF07000000F0FFFF1F00C4
:100DE00000FEFF0F000000E0FFFF1F0000FEFF0FEE
:100DF000000000E0FFFF1F0000FCFF1F000000E0FC
:100E0000FFFF0F0000FCFF1F000000C0FFFF0F00EE
:100E100000FCFF3F000000C0FFFF070000F8FF3F9D
:100E20000000F00F00000E700080F99F0140FE7F6F
:100E300002A0FFFF05D0FFFF0BE8FFFF17FCFFFF3D
:100E40002FF47FFF2FFA7FFE5FFA0FF05FFE07E0BF
:100E50007FFD63C6BFFD53CABFFD33CCBFBD8081DC
:100E6000BF3D8081BFFD31CCBFFD53CABFFD63C60E
:100E7000BFFE07E07FFA0FF05FFA7FFE5FF47FFFAF
:100E80002FFCFFFF3FE8FFFF17D0FFFF0BA0FFFF86
:100E90000540FE7F0380F99F01000E700000F00FF7
:100EA0000000C0030000F00F0000381C000018789C
:100EB00000000C7800000670000006400000E60FFD
:100EC0000000F3FF002003E0073003000E1C0100C8
:100ED000380E01007086010060830180C1830180AB
:100EE000C1830180C1830180C1860180611E0180B0
:100EF000701C0100383C03000F2003F00700F3FFD3
:100F00000000E603000006000000066000000C3050
:100F1000000018180000381C0000F00F0000C0038B
:100F200000FF01F0000700FC030700FE070700FEBA
:100F3000077F00FE070700FC030700400007000EC4
:100F4000073F80FF1F07C0FF3F07C0FF3F7FE0FF55
:100F50007F0FE0FF7F07E0FE7F07E0FE77FFF1FEF7
:100F6000F707F0FEF70770FEE70700FE477F00FE79
:100F7000070700FE070700FE070700DE077F009E49
:100F80000707009F0707009F0F07009F0F7F009F25
:100F90000F07009F0F07000F0F07000F0FFF01073C
:100FA000078001800180038003800180039FF9BFD7
:100FB000FBBFF9BFFBBFF9BFFBBFF9BFFB3FFC3F66
:100FC000FCFFFFFFFFFFFFFFFFFFFFFFFF0300002E
:100FD000C0030000C0030000C003009EC703009EC2
:100FE000C703009EC7030000C0030000C0E3799E52
:100FF000C7E3799EC7E3799EC7E3388EC703000035
:10100000C0E3799EC7E3799EC7E3799EC7E3799EE3
:10101000C7030000C0030000C0FFFFFFFFFEFFFF8B
:101020007F00C0010000E0030000E0070000F00FB7
:1010300000E0FCFF07F03FFC0FF007E00FF003C0FB
:101040000FF0088007F00000077004000E300180E8
:101050000C3830001C3C70003C1FE000F81FC00141
:10106000F81F8001F81F0000FC3C00003C38000025
:101070001C3000000C7000000EE0000007F009803A
:101080000FF003C00FF007E00FF0FFFE0FE0FD3F91
:101090000700F00F0000E0070000C0030000C003DD
:1010A0000000C0030000C0030000C0030000F00FF8
:1010B0000000F81F0000381C000018180000381C41
:1010C0000000781E0000F00F0000F00F0000700E0E
:1010D0000000781E0000381C00003C3C00001C385A
:1010E00000001C3800009E7900008E71000F8FF107
:1010F000F8FFFFFFFF8087E1018083C1018003C00B
:1011000001C0018003C0018003C0018003C0000052
:1011100003C0000003400000024000000200000085
:101120000003000040030000E0030000E0FFFFFFB9
:10113000FFFFFFFFFFFFFFFFFFFFFFFFFF070000B5
:10114000E0030000E0030000C00000000000000019
:10115000000000000000000000FEFFFF7FFFFFFF17
:10116000FFFFFFFFFFFFFFFFFF638C31C6638C3182
:10117000C6638C31C6630030C0630030C06300308A
:10118000C0430010C0030000C0030000C003000003
:10119000C0FFFFFFFFFFFFFFFFFFFFFFFFFEFFFF9F
:1011A0007FC71C00FFC71D00FF870D00FF870F00D2
:1011B000780707001E070700FF070700FF07070063
:1011C000FF070000000700000007000000070008FC
:1011D0000007001C0007000E00070007000780033F
:1011E0000007C0010007E00000077000000738009A
:1011F00067071C0076070E003E0707003C870300C8
:101200003CC701007EE7000066770000633F0000F6
:10121000001F000000FFFFFFFFFFFFFFFFFFFFFFBA
:10122000FF00F00F0000FE7F0080FFFF31C007E0ED
:101230003BE001801FF0003C0F7883FF1EBCFFC322
:101240003DDC7D803BCEFC00738ECD017686810334
:1012500076873307E607F30EE607E61DE3C76E3B26
:10126000E3C7DC76E3C7B8E7E16770CFE167E0C4C6
:10127000E166C0E1716E80E371CE008F73DC01FC2A
:101280003BBCC3F93D78FFC11EF03C000FF8018064
:1012900007DC0FF0038CFFFF0100FE7F0000F00F62
:1012A0000004F00F200608102002C8134032E8178F
:1012B0004C11E817889108108999F81F9999181806
:1012C000999108108911E8178833E817CC02C813E0
:1012D000400608106004F81F200000000000000015
:1012E0000000C0030000C0030000C0030000C003F2
:1012F0000000C0010000C0010000C0010000C001EA
:101300000000C0010000C0010000C0010000C001D9
:101310000000C0010000C0030000800100000001C7
:1013200000FFFFFF00FFFFFF001F00E000FF00E0E5
:1013300000FF03E000FF0FE000FF1FE000FF1FE0E1
:1013400000FF1FE000FF1FE004FF1F000CFF1F0055
:101350001CFF9FFF3FFF9FFF7FFF9FFFFFFF9FFF40
:101360007FFF1F001CFF1F000CFF1F6004FF1F609A
:1013700000FF1F6000FF1F6000FF1F6000FF1F6075
:1013800000FFFF7F00FFFF7F00FE1F0000F81F002F
:1013900000E01F0000801F0000001E000000100081
:1013A000000080010000C0030000C0030000E0074F
:1013B0000000E0070000E0070000E00F0000F00F71
:1013C0000000F00F0000F00F0000F81F0000F81FF1
:1013D0000000F81F0000F81F0000FC3F0000FC3F69
:1013E0000000FC3F0000FC3F0000FE7F0000FE7F8D
:1013F0000000FE7F0000FE7F0000FFFF0000FFFFF7
:101400000000FFFF0000FFFF0080FFFF0180FFFFE3
:101410000180FFFF01C0FFFF03FFFFFFFFFFFFFF92
:10142000FFF0FFFF0FF8FFFF1F1C0000380E080041
:1014300074070820E4030020C0030002C003000278
:10144000C0033080C1030000C8030000C80300339C
:10145000C0033020C0031000D103003EC303E01FCF
:10146000C003C01FD003E00FD003F02FC003FC2740
:10147000C203FE07C3837F02C0C33F40C0F30F40D7
:10148000C0FB0700C6FB0100C0FB0040C0370000E6
:10149000E00E0000701C000038F8FFFF1FF0FFFF97
:1014A0000F0080010000E0070000840100003C3CC8
:1014B00000007E7E00007E7E00007FFE00007FFE3A
:1014C00000807FFE01807FFE01C07FFE03C07FFEA3
:1014D00003E07FFE07E07FFE07F07FFE0FF07FFE58
:1014E0000FF87FFE1FF87FFE1FFC7FFE3FFC7FFE94
:1014F0003FFE7FFE7FFE7FFE7FFF7FFEFFFE7FFEC3
:101500007FFC7FFE3FF07FFE0FC07FFE03807FFEEB
:1015100001007E7E0000781E000060060000400290
:10152000000080010000C0030000C0030000E007CD
:101530000000E0070000700F0000781E0000381E59
:1015400000001C3E00001C3E00000E7E00000E7CD1
:10155000000007FC008003FC018003FC01C001F8CF
:1015600003C001F803E000F807F000F80F7000F87E
:101570000F3800F01F3800F01F1C00F03F1E00F075
:101580007F0E00E07F0700E0FF0700E0FF1F00E0A4
:10159000FFFE00F07FF8FFFF1FE0FFFF0700FC3FAA
:1015A000000700000007000000070000000700C05F
:1015B000030700C0030700E0070700C0030700801F
:1015C0000107000070070020F8070078F80700F80E
:1015D000F80770F87007F8780007F8200007F8009F
:1015E0001E07700E1F07001F1F07001F1FC7031FC6
:1015F0000EC7031E00E7470000C7E3010087F101A3
:101600000007F0010007E0010007400000070000AC
:101610000007000000FFFFFFFFFFFFFFFFFFFFFFCE
:10162000FF00F00F0000FC3F0000FE7F0000FE7F87
:101630000000FE7F0000FFFF0000FFFF0080FFFFB3
:101640000180FFFF0180FFFF01C0FFFF03C0FFFF1C
:1016500003C0FFFF03E0FFFF07E0FFFF07F0FFFF0E
:101660000FF0FFFF0FF0FFFF0FF8FFFF1FF8FFFF66
:101670001FFCFFFF1F3C00003C0000000000FFFFBC
:1016800000F8FFFF0FFEFFFF7FFFFFFFFFFFFFFFE1
:10169000FFFFFFFFFFFEFFFF7FF8FFFF1F00FFFFC1
:1016A0000100C0030080C1070000C70700009E0FB3
:1016B00000609E9F07F03CFF0FF03CFE1F623CF86D
:1016C0001F063EE00F1C3FC007FC7F800FFC7F0021
:1016D0000FF8FF001FF0FF017E87FF03FE0FF007EA
:1016E000FE3FE00FFE7FC01FFE7E803F7E78007FC2
:1016F0001EF000FE0CF001FC01F001F803F003F015
:1017000007F00FE01FF8FFC77FF0FF9F67E0FF9F24
:1017100063C0F00F4300E0077E00E0073E00C00317
:1017200000C0FFFF03E0FFFF0F6000000E7000002D
:101730000CFCFF3F0CFFFF7F0C0700600C030060F8
:101740000C0300E00C0300E00C837FE00CC37FE09F
:101750000C0300E00C0300E00C0300E00C83FFE14D
:101760000C83FF010003000000030000000300E001
:101770000FC3FFF03F837FF87F03003C7803000E28
:10178000E2030066CCC33F76DC03004EE403001C9A
:10179000700300FC7FFF0FF83FFEFFF01FFCFFC14E
:1017A00007000000000800001004000020260000D0
:1017B000642201804492000049933C3CC993FC3F61
:1017C000C99BFC3FC99BFC3FD99BFC3DD993FC3F87
:1017D000C993FC3FC992FC3F492601806426E0077B
:1017E00064448001220880011010C0030800C00377
:1017F0000000C0030000E0070000E0070000A005B3
:101800000000B00D0000B009000090190000981908
:10181000000088110000883100008421000084212C
:101820000000002100240027002A002D0030003392
:101830000001010000040107010A01000022002547
:101840000028002B002E00310034000201000005AA
:101850000108010B01000020002300260029002CB4
:10186000002F0032000001000003010601090105FC
:10187000050505070508080808020202020A0A0809
:10188000080404040401010101010101010303032F
:101890000303030303040707070C0C0C0C0C0C0CCC
:1018A0000C0202020206060606060606060B0B0BD3
:1018B0000B0B0B0B0B01021020200808102040100E
:1018C0002040800201020108040201010204081004
:1018D0002040808040201008040201800402018022
:1018E000402010080402010804020101020408104B
:1018F000204080010204081020408000000A0B02F2
:10190000090C0D0E08070304010000000000000090
:1019100000000000000000000000000000000000C7
:101920000000000000000012111000000000000084
:1019300000000000000000000000000000000000A7
:1019400000A20003030404010405080800FF07FFC8
:1019500007FF013C02740641200500710221077255
:1019600071E230122207239B222209230C75D12613
:10197000E53049394C5200240E85CF26C912215139
:1019800022A6480400250E76F14214510C0A831257
:10199000494800260D76F16624118D2893CA4A0025
:1019A0002706215B42002809838F2A12D129162994
:1019B0000A838F2216926849022A0C75D12A256261
:1019C00099589242002B0A55D32A182A0543002C15
:1019D00006326F86022D0614B782002E062271820F
:1019E000002F0B73912A451291844200300A75D161
:1019F0006622E145320131077391A6A207320B75C9
:101A0000D18228934C64B202330B75D18228930C97
:101A1000651600340A75D14E34898C6E0A350B7503
:101A2000D1821224CA641600360C75D16622A348EE
:101A300058241300370B75D1A2269289644A0038C6
:101A40000D75D16622A14826128A6402390C75D11F
:101A500066226191D02413003A06527182443B07FA
:101A6000626F8246013C0974B12E2451530B3D062E
:101A700034B382483E0974B122A64529063F0B754E
:101A8000D182285293434400400C76EF86223A4C90
:101A90000E540A00410B75D1662261394828024272
:101AA0000B75D18222B148582C00430875D1C6A6C7
:101AB0002301440975D18222E1C502450975D1E2AD
:101AC0004691A915460975D1E246916903470A7501
:101AD000D1662253619110480A75D142423948B803
:101AE0000849067271E2014A0874B14A4F15004B69
:101AF0000D76F14244919066248992004C0874B1AD
:101B000042A427024D0D7711233AAB1C2A111A4D1E
:101B1000004E0C76F12246AA1C26255A004F0A7662
:101B2000F18622E2494201500B75D1822261B1C88F
:101B30006400510A86EF8622E2654215520B75D188
:101B4000822261B148220A530974B1A62453AA0023
:101B5000540976F1C224D41300550A75D142C21734
:101B6000C90400560C76F142C42421D184220057C6
:101B70000E771143C61239484A25890400580D765C
:101B8000F1424492D06414114900590B76F1424459
:101B900092D0849A005A0A75D1A2269A2CC90A5B5F
:101BA00008838FA2A297015C0A73912214128544C4
:101BB000095D08838F62A297025E07339926420966
:101BC0005F0616D1C2006006227B2214610955D13E
:101BD0006628B14808620B75D14226A348582C00EC
:101BE000630754B1A6A436640975D14EC5C222213B
:101BF000650955D16622390809660873918652D164
:101C000002670B65CFC64291D0241300680A75D1D4
:101C10004226A348B808690772714274186A09839A
:101C20008F4628D142016B0A75D142A66219511420
:101C30006C067271E2016D0C5831E3A2429150249E
:101C400014056E0855D18222E1226F0A55D1662211
:101C500061914C00700B65CF8222A15864320071F3
:101C60000965CFC64291D014720854B14272520233
:101C7000730854B1A644AA00740973914222A9289A
:101C800009750855D142C24542760B55D142429161
:101C90008C662100770D5711434689502292924459
:101CA00002780B55D14242914C241401790B65CF37
:101CB00042C222A14926007A0855D1A2A4AD007BD8
:101CC00008838FA2A297017C07826FE241007D0802
:101CD000838F62A297027E0725DB460B00A00500DA
:101CE0007102A1077271427418A30A75D16A225356
:101CF00022890AA40D65D1221699482892492C0000
:101D0000A50D76F14224A1984426A10800A60782D9
:101D10006FE24100A70C84AF468512A144282A0037
:101D2000BA07539526C701BF0A75D14A0E91891487
:101D300009C00C75D1261A9B480E128A00C10B757A
:101D4000D12E6D2239482802C20B75D12A16893C42
:101D5000482802C30B75D146D34472905004C40C7A
:101D600075D1261D30911C241401C50D75D12A167C
:101D7000094D2407094500C60E7711AB4292882C05
:101D80004A12918400C70985CFC6A6232904C80A30
:101D900075D1261ABA516405C90975D12EE9469143
:101DA00015CA0B75D12A1689DC28B202CB0975D168
:101DB00026F9469115CC077271227420CD077271F5
:101DC000467218CE0973912665A20B00CF09739154
:101DD000221294E800D10B75D1464B887290900284
:101DE000D20C76F12A1CA38898241400D30C76F127
:101DF0002E18A48898241400D40D76F14A168A1C53
:101E0000424C120A00D50D76F14A9222A2889824FB
:101E10001400D60D76F126148750444C120A00D8CF
:101E20000B76F1E6443954481700D90B75D1261AC0
:101E30009270914C00DA0A75D12E49C2453201DB0D
:101E40000C75D12A168948B8482600DC0A75D126B7
:101E500059C2453201DD0A76F1324985265402DF46
:101E60000C85CF6622B148B8446400E00B75D12AD6
:101E70001A1A4A2C1202E10A75D12E6D28B14808AF
:101E8000E20C75D12A1689D424160901E30A75D10A
:101E900046D350629110E40B75D1261D309458241E
:101EA00004E50C75D12A1609D124160901E60B5751
:101EB00011A728891C223203E70964AFA6A4368A39
:101EC00000E80B75D1261A9B480E4202E90A75D12B
:101ED0002E6D22390809EA0A75D12A16893C0809AB
:101EE000EB0B75D1261D30911C8404EC0772712216
:101EF0007420ED077271467218EE0973912665A27F
:101F00000B00EF097391221294E800F10A75D14693
:101F10000B45C24500F20C75D1261A9B4858241374
:101F200000F30B75D12E6D2261914C00F40C75D12C
:101F30002A16895C58241300F50B75D146D344C288
:101F4000229900F60C75D1261D3091B0482600F874
:101F50000955D1C672905800F90A75D1261A9270A7
:101F60009110FA0975D12E49C24542FB0B75D12A51
:101F7000168948B84808FC0975D12659C24542FD62
:101F80000C85CF2E49C222A1492600FF0C85CF2601
:101F900059C222A149260000000004FFFF00005F93
:101FA0000004030505030506101100FD0DFD0DFDE0
:101FB0000249053A0773200600309A00210AA2154B
:101FC000927050911101220CA614A320C244222425
:101FD0000B00231FAB11AE15121613161316137335
:101FE00030932C262C26E66026594C584C58481421
:101FF00000241CE7F9AD137410113211321143346F
:10200000B528422662248222E2202806002526AD39
:1020100011B64136942428462428442628242845ED
:1020200018456C085548508C4850884C504850D042
:10203000180500261FAD11B6532723262326232774
:10204000214728316232232133122254223524358C
:102050007440270AA314937020111201281004B6AB
:10206000991312131213A26F12C50405291304B693
:1020700099101413141323A2273121312131002A7E
:102080000FA7109F132311A14D448C8404002B0D26
:102090006915AE1498A303A1C01C012C0AC3B49106
:1020A00070201232012D0624B096402E0643149261
:1020B000602F1609B2A51817181718171817181730
:1020C000181718171817083018AA11AE432522231D
:1020D00024121621C63389B010211911291A003192
:1020E0000AA619AE40A4FF89013213A815AE5122E9
:1020F000231125A62C4C2A2CB38303013313A719D3
:10210000AE501243242595864CD5D08C440900341A
:1021100019A915AE263615212421142213231224C1
:102120002124712026A78C003511A719AE701096B6
:10213000AC6A95AAA1198912003619A915AE5323C4
:1021400013221421A7826446428A954494848C10F9
:1021500009003713A819AEF0404C4A2C4C4A4C4A9F
:102160004C4A4C15003817A915AE52235345651338
:102170006254133321544525212353023919A915DB
:10218000AE422423211521C54A426684424E459021
:10219000488C4C0D003A07221592404A3B0A82B502
:1021A00091404A1121013C0B6A11AE1928A6535DDA
:1021B000063D0BAA50AE70308FE060003E0C6A11F5
:1021C000AE1029AA331D46023F12A715A65022427F
:1021D00024259559943C90940C004025AD15BE558E
:1021E000262523172232141112132313222312A39C
:1021F000244466246244226482265828900C0041BC
:102200001CAE11BA162D3B1B212921193218231798
:102210003476101536142713383156421EA915AEE0
:1022200070102233212421242124212362A3444835
:102230004248424842E66004004314AB11B27422A3
:102240002521172128A95349D1A9200B004420ACEE
:1022500015B6702024252326222721272127212770
:10226000212721272117222622257220034514A980
:1022700015AA7010221422A74D8C8D4C8C9C5607E9
:10228000034614A815AA7010211421A64D88894C64
:1022900088985635004718AC15B674332422172297
:1022A00029AA999D88988898CC90D40500481FAC9D
:1022B00015BA4044212622262226222622267230C2
:1022C000222622262226222622264144490BA41514
:1022D0009A4021A2FF82004A1007B2A14324A5FF21
:1022E000458C444C080D004B1DAC15B640432225CF
:1022F0002314251326124748282127222623253375
:10230000243442624C0DA915AA4026A77F152175D9
:10231000304D2BAE15BE40463136423512214412A7
:1023200021142112A2422444244424462244246637
:10233000462466462428482452628E004E27AC1557
:10234000B6303631163216122115123114123213EC
:102350001223131224926822244A22246C244E62EF
:102360004C02004F18AC15BA6325242326222621DF
:10237000C843093111311921291B005019A915AA87
:1023800070102233212421242124212421235224AA
:10239000A759110051200EB6B963272425262426FB
:1023A00023282228222822282228233623262534BF
:1023B000663D4C3C521EAB15B270102433232423CF
:1023C000242324A3E848444A64484648664648848F
:1023D00068005315A815A65222132114213646452C
:1023E00036273645236102540EAA15B270402313D6
:1023F00024A87F6602551FAC11B64035211722175D
:102400002217221722172217221722172217221704
:1024100023156503561CAD11B650443117231634ED
:10242000152524351327132712291149392B1B068B
:10243000572CB011C25013343114152333132433E5
:1024400013243313341121132511221126112211C3
:10245000362311362428242824182504581DAC11AD
:10246000B2603332A4284A264E428E5232422E6443
:102470002C462A68466A82A6005917AC11B26042FF
:10248000311633142523261227113929AA4B22008D
:102490005A16A915AE704024112526362636263642
:1024A000A62A42EA60005B0A04B69960A2FF2704EC
:1024B0005C1509B2A52098323032303230323032D9
:1024C00030323032005D0A04B69940A2FF27065E22
:1024D000146A51AE15A85D485848545036612161C0
:1024E0001181015F0627F4A1706007447CAB3023A3
:1024F00061132815A65113231223266231222123AA
:10250000212372621AAA11AE30A80B9A1911290957
:1025100029092909290929891911091200630D2896
:1025200011A662213435A69D9C01641AAA15AE3607
:10253000A80D8588CC84948494849484948494880D
:10254000CC0CC50065102815AA42231321447450F1
:10255000262714626611A6159E42211221122153CC
:1025600022A46F480067158AB1A973214321A347AC
:10257000558192175212422336006819AA15AE30BF
:10258000A80B9A19112111211121112111211121B9
:10259000091202690BA4159A212239A25F106A0D53
:1025A00006B299A49C483F9A99B9006B18AB11AE3A
:1025B00030A91B122119112909B1328929912199B8
:1025C000111A026C0AA4159A30A2FF05016D193088
:1025D00011C2304142B34644488990122125424AF3
:1025E000849408A920616E172A15AE304133232246
:1025F000242224222422242224222441426F0F292F
:1026000015AA52A3428A571232322500701B8AB192
:10261000AD304133232225212521252125212531B6
:1026200023224123284706711A8AB5AD422122335D
:102630002125212521252125212522334321A88E4D
:102640000072102615A230213111211221A49B0AFB
:102650000073112715A6512113211341D468E820D6
:102660000200740C85159E21A3A442461F0D751708
:102670002A11AE303322242224222422242224228E
:10268000242233433176152B11AE503331152314E8
:1026900025132512271137291905771F2F11BE5031
:1026A0002233312314233312241221123411A16A4C
:1026B000666C664E46302A080078152A11AA5041E9
:1026C00031233321452717212531233331527917FF
:1026D0008BB1AD50333115231425132512563728ED
:1026E0001A192928077A102815AA7020243534A52C
:1026F0006A4AE840007B0E04B6992221A2173231C3
:10270000227A237C0801BA91F040007D0F04B6992B
:102710002023A2372221FA4204007E0D8A70AE31B6
:102720002513241423350100000004FFFF00005F7F
:102730000003020304030504050A00FE07FE070068
:102740000142028803B6200500620721073943C70A
:10275000A00422079B52476209230E3D424F29499C
:1027600006A53228A52401240C3D4257B6D4B62430
:10277000D92200250C3D424FA474ABB44809002671
:102780000D3D424F9644495649A44809270619531E
:10279000C7002808BB425752AA152909BB42475611
:1027A000AA94002A0A2D4647965406A52D2B0A2DD9
:1027B0004657180D5218012C079B3E8F52022D06CA
:1027C0000D4EC7202E089B3E4FB224002F083D42DD
:1027D00067AD6308300B3D425796D46C492D0231EA
:1027E0000A3D4257262561D320320C3D42CF9285C7
:1027F0009194858300330C3D42C7206699AA250B2E
:1028000000340C3D425F2625A564D0C204350B3D43
:1028100042C73131855AB200360C3D4297948589C2
:10282000494B1600370B3D42C720666156CC003835
:102830000C3D42CF9269C99269C902390C3D42CF21
:1028400092498A126691043A0ABB3E4FB2A4C992D9
:10285000003B09BB3E4FB2A44A093C08BC425FD4CE
:10286000D8003D081D4AC7A00E023E08BC4247D80A
:10287000D4063F0A3D42CF9235E65004400C3D421B
:10288000CF92494B62491700410C3D425796D4B450
:1028900061C8B400420D3D42C71055A264AA4483EA
:1028A00002430A3D42CF92896DC902440F3D42C79F
:1028B0001055A2244AA2241A1400450B3D42C731E8
:1028C0001C92301C04460A3D42C7311C92B0084796
:1028D0000B3D42CF9289A52D5900480A3D424766DB
:1028E0001B86CC164908BB42C71275194A0A3D42DD
:1028F000D716B64491044B0D3D42472625252D8918
:102900002A59004C083D4247D8E3204D0B3D424731
:10291000A62D4BA2D9024E0C3D4247A64D4A226D30
:102920005A004F0A3D42CF92794B1600500C3D425F
:10293000C79064DAA0844500510A453ECF9279A938
:10294000AC01520D3D42C79064DAA0942A5900535D
:102950000B3D42CF92A9AB962C0054093D42C720B3
:10296000853D0155093D4247E65BB200560D3D42AB
:1029700047664B4A4994641100570A3D4247E69224
:1029800028C92D580B3D4247A625B54A4D0B590A7B
:102990003D4247A625B5B0095A0A3D42C720661DEB
:1029A00007015B08BB42C710751A5C083D42479897
:1029B000760C5D08BB42C7D469085E081D52579665
:1029C000D4025F060D3EC7206006125B4714610A01
:1029D0002D42CF9A0C5A3204620B3D42475831695E
:1029E00093A200630A2D42CF928959B200640A3D36
:1029F0004267C5B4498A12650A2D42CF920D43BA87
:102A000000660B3D429754C98628AC01670C3D3ADD
:102A1000CFA069C9106AC902680A3D4247583169A6
:102A2000B6006908BB424F28B50C6A0BCC3A5FACC4
:102A3000D5242951006B0B3D4247589392A992052A
:102A40006C08BB4287D4CB006D0B2D4287D2A224E9
:102A50004AA2056E092D424762D26C016F092D42D0
:102A6000CF92D99205700C3D3A4762D22645094370
:102A700000710A3D3A8F699314252C72092D424743
:102A800062128B0073092D42CF921E1400740C3D0C
:102A9000424F980D51588A140075092D4247E6A4FB
:102AA0002801760B2D4247A625A5248B00770A2DF9
:102AB00042476649942E00780A2D424796D42AB59B
:102AC00000790C3D3A47665294504B16007A092D16
:102AD00042C7A0B50D027B0ABC4297122662140AB7
:102AE0007C063943C7217D0BBC428718854A98482C
:102AF000007E091D524FA424520200000004FFFF73
:102B000000005F0003030304030504060E00FE0A31
:102B1000FE0BFE017002DC0428200500F2072107ED
:102B200052C3C713012208A5DE87848B00230D56EC
:102B3000C20F89C542A258482C0024115EBE978C52
:102B400012D11219CE24BA44682200251056C28F21
:102B50008452114D83D191A4429100260E56C2D7C2
:102B600048A2A7918452D12411270722DFC7210050
:102B7000280CEDBA9F484D24D3512654290DEDBAA7
:102B800087504D28D3492652032A0D3ECE47444B49
:102B90008426A344B4042B0A3EC69750C924540289
:102BA0002C0823BBC74442012D060ED287012E06F6
:102BB00012C307012F0E6EBAA736A14CA82694099E
:102BC0001501300B56C20F45C49F241400310A561C
:102BD000C2976C44D42703320D56C20F454412CA23
:102BE00084328D06330F56C20F4544128AA6421214
:102BF000494201340D56C267506D44D1C526940038
:102C0000350F56C2C72128AC88844212494201368A
:102C10000E56C2D748422256449C241400370C5604
:102C2000C2C7214411CA847A02380F56C20F45C464
:102C3000242151444C120A00390E56C20F45C44992
:102C40005224514423003A073AC70799003B0A4BE4
:102C5000BF8F3A6822A1003C084EC2A74C571D3DC9
:102C60000726CA871D6A3E094EC28754371D013F99
:102C70000E56C20F45449229AAC3842200400C5626
:102C8000C2D74842B974599112410C56C20FE5108F
:102C9000E274183109420D56C24745C414A9883858
:102CA0005D00430C56C20F45C4A813494201440CB1
:102CB00056C20749A2C42F121200450B56C2C721A3
:102CC000A858116A34460B56C2C721A85811EA0801
:102CD000470D56C20F45C4A85262925000480B5689
:102CE000C28788D361C49300490956C28749A89F07
:102CF0000C4A0B56C2A73E9228A211004B0F56C297
:102D000087882221CD6624924489244C0856C287A4
:102D1000507F344D0C56C24770443A1C443C094E17
:102D20000C56C287885469A17422094F0B56C20FF2
:102D300045C49F241400500B56C24745C4E922D411
:102D400008510E66BA0F45C45385529250A50152E0
:102D50000C56C24745C474D1C44900531056C20F23
:102D6000454492488552898824A100540956C28757
:102D700049A83F01550A56C287887F925000560CD9
:102D800056C287889F24249A0800570C56C2878809
:102D9000A7C343251401580F56C287882421D18424
:102DA0003212454412590C56C287884942A209750D
:102DB000025A0E56C28751269409654299D0005B8B
:102DC00009EDBAC74DFFAD005C0E6EBA87505528AD
:102DD00015AA0AA542055D09EDBA474DFFED005E53
:102DE000081EE6978C22125F0716BAC7A10060077B
:102DF0009CE2874C01610D3EC20F45249B4848244C
:102E00004901620B56C28750B122E2E902630B3ED0
:102E1000C20F4544D424A100640A56C2A796134F9A
:102E20009202650D3EC20F45443A0C45120A0066F7
:102E30000C56C29F8C241499843A01670E4EBACF67
:102E40004A45D32C5811492800680B56C28750B107
:102E500022E29300690752C307E9706A0CE5BA9F42
:102E60003A44A6378A64026B0E56C2875053448593
:102E7000449228D1026C0752C3C783016D0A3EC237
:102E8000874472F840126E093EC24745C427016F5D
:102E90000A3EC20F45C4938402700B4EBA4745C424
:102EA000D3452804710A4EBACF8927495101720AC5
:102EB0003EC24745C4A81100730D3EC20F45249180
:102EC000AA88241400740B56C29750C924D47500E4
:102ED00075093EC287884F9202760C3EC2878849A8
:102EE00042A2094500770C3EC287887478A88422E4
:102EF00000780D3EC2878824A1C928229200790E4D
:102F00004EBA878824D1693694288D007A093EC24A
:102F10008751A6A3017B0CEDBAD744A69350A6E334
:102F2000007C076ABBC787027D0DEDBAC750A6A318
:102F300048A6CB08007E0A26DE4FAC22A945000039
:102F4000000004FFFF0000DF000303040403030587
:102F50000808000008000800000E01B109A9400E91
:102F6000782C5E1D100C5D82A1382056410E782C05
:102F70005E1D10895E52E380580142085536C650E6
:102F80004D0143095535D644245303440E782CC6CD
:102F9000210EB2830E71900500450E782CC6210ECD
:102FA000B1C30E71880900460D782CC6210EB343BB
:102FB0000E71980147118824DE2C329A11C592387F
:102FC00040328B8800480A85255630A7CA2C044910
:102FD0000F8824164D241999C843894846024A0F80
:102FE0008824164D321195C5238A6446024B0F88FA
:102FF00024166D22218DC525C94446024C0F882414
:10300000164D24118E49A6894846024D0C58345657
:10301000587A88C80151004E0C58346E1C2039442F
:10302000C521004F0A84268E48178A2C02500A4870
:103030003456F870084501510A4834AEE4700887E8
:1030400000520A84264E684211E902530A85255629
:103050006C520AE604540E58344E30129684229272
:1030600050642855128724664A301291A44832458C
:103070009222E11000560B742E8EE410118B240066
:1030800057118824162D2609D242A21831228B917D
:10309000005811782C465012944454222A11953825
:1030A000E010591288249E581A0A1D22A68824145A
:1030B00091842C005A0C682CC6251A89AE462E0025
:1030C0005B0A682CC6E5E14172015C0F88248E2DF5
:1030D000140CC544A260E4F0305D0D88249E94C8B1
:1030E0006639C48132005E0E85255650228A8C26B0
:1030F000A2902C045F108824864DA4C92493C82470
:10310000B2830400600B652D56307688054300615C
:103110000A872406A9E9F0203E6208742EC60752E9
:1031200000630B8824C6210E191DFE10640E88242E
:103130001631143A3CCC21878300650C8625962CE9
:10314000941AA405A306660C8824C641123C8C354B
:103150001F04670D88243E202A9D0AA58B53006812
:103160000B772C5E7474A9ACA82C690E772C764C66
:10317000E212A18462A120006A0F8724C6212A3DA1
:1031800048522C929443006B0E8724C63BE01049B2
:1031900039482287016C0F8824A6947290882A12DD
:1031A0008AA474186D08363D868526026E09632F41
:1031B00056E41011056F0A632E4648728884007029
:1031C000073635968C62710D682CC61C6023D2A11F
:1031D000A10800720A6834464D2CB9D41A730C68E1
:1031E0002C7678129AD8A84200740C58344E30329B
:1031F0009AD8A832007509642E964449A600760A2A
:1032000085254E6CD3642D0677094635968C221A97
:1032100006780E882416CD5231D10E141B09007980
:103220000E882416CDA2523255546C24007A0B8796
:10323000245ECA447AF821007B0F8824162D1809D1
:10324000AB85C491608C047C0B682CDEB064391CA7
:1032500024077D0E8824DEB064995522C2F038061A
:103260007E0E8824DEB064A1D884E1710C007F0E4C
:103270008824CE702A19962C8783E4008010682C4D
:103280006E2C14490B896291A4581400810E882475
:103290009ED06419992626A30C00820B8824C6832D
:1032A0001C28C77C08830C882446745B641699AE7E
:1032B0000A840C882486744B6C129BAE06850C889D
:1032C00024C6218E590E3C1C048610772CC684928D
:1032D0007208454287480A65008709782CC63FD89E
:1032E000010188118824162D18094644BA0423C107
:1032F000180900890E8824166D14A1758B8C622420
:10330000008A0E8824C6210EA9A31EE2104B008B52
:103310000D682CC6210E391C269143018C1288247D
:103320004EF4108A895242915048163A47008D1146
:103330008824162D18094B421191A6483046028E5A
:103340000B88249E58952A473D048F0C8824C6215B
:103350008E2AA58AD500900C682C9645A56492A863
:10336000840C910E682C162D1809A950425419008E
:10337000920F8724C670128A4424C3C8C178109360
:103380000B852556C846A4994200940B5834C6C8EC
:10339000A926098600950A582C5630222B390D96FD
:1033A0000C682C8E8C260986464E03970D682CC619
:1033B000C869148CC8681200980C7625968C72B077
:1033C00058261400990D78249E946639C421878369
:1033D000009A0A642E8E840EA148009B08283C8621
:1033E0004442519C0D682CC62162098948874301DB
:1033F0009D0F88249E5024094B282211E970289E95
:103400000D87241E291AAD458B7100019F0D782C64
:10341000C61D54071EE2906C00A00C8824C6210E25
:1034200094633E1C04A10C882446744B6C129BAE22
:103430000AA20C882486745B641699AE06A30B88D6
:1034400024C6831CB31C7808A40E8824868CC896D6
:103450000E8803C20701A50E682C164D24918428FE
:103460009A642400A61188245E64488B8C62A1585B
:103470006414234E01A70C8724C670129A488687CD
:103480000FA80E87245658B81219554A930801A957
:103490000F8724466414B150229418391900AA0CDD
:1034A000742E8E28448A45262200AB0B8824C6F44D
:1034B00010871C7E28AC0D8724C6C465120B558668
:1034C0008B00AD098824C6741DEB06AE09662DC6B7
:1034D0006C79B600AF0F8824164D24911169468986
:1034E0002C4602B00B782476E2301C473904B10F29
:1034F000772C46243B20921D10C90E8864B2108898
:10350000248644425187A850D4212A1405B30B883D
:1035100024C6C8698E34721AB40A8724C6EF804361
:10352000E510B50F772CC664120BC542A5582816B6
:1035300059B60E782C164D240A86821121A300B7A5
:103540000D682C8E487238486C541900B80B762DD3
:10355000968C7238984802B90B8824C641AC4C73DB
:103560003A08BA0B8824C6C35879783810BB0C487F
:10357000348E4812D214114900BC0A842696E22CDB
:10358000148B0DBD0D8724566D28154A85B3120086
:10359000BE0E782CC6210E39C4218738C802BF0E52
:1035A000782CC6210E39C4218738C404C00E782C6B
:1035B000C6210E39C4218738CC00C10E8824E650BC
:1035C0001413852C26DA740AC20E682C8E29180A68
:1035D000868291D18100C3108824069125448903F5
:1035E00022214A1C1024C40C85259664689CCC2199
:1035F0002100C515882456482514078462A158283F
:103600000E084544A21000C6118824AE1C1213A552
:103610008562A1902C0E9102C70E782C46C40E89AB
:10362000D821113B2462C80E782CC6E43A9983262F
:10363000D7C90400C90B662DA6E820A2494300CAD9
:103640000A762D962C94E5F030CB0B8625962C141B
:103650004D393C0CCC0E782C76E4208DC3A2074962
:103660001800CD0E682C9654168AD94231A908004C
:10367000CE1188248E2918078462B6501C100C596C
:1036800000CF108824D630168A46A29168282633A7
:103690000BD0108824C6412C194992242351847CD4
:1036A00010D10D762D0E4534148E24341100D2081D
:1036B000662D86884F02D30A652D46707430050149
:1036C000D40A662D0EE5F030A100D50E672D562CDC
:1036D00022AA582622512C00D60E672C462CA43242
:1036E000B19424B11000D70A672C86704671230666
:1036F000D80B672C469066B1D08602D907662DC6D6
:103700001F02DA0C8824169174F840229200DB0C18
:103710007824C6218E7488231D02DC0E86259650DF
:1037200014D1329210631400DD07283CC68300DEFA
:103730000C8824C641ACF920135A00DF0B77248E85
:10374000709176B18900E00A772C5E38ED164E0351
:10375000E10D88245EC9140C054321AF00E21187F6
:1037600024A63094168945324564A2D80C00E30B98
:103770007724761C269C2D4A01E40F88246E302481
:103780009A8826C1A02CF206E50D88249E94C82AAA
:103790008C490E0701E6098525864DB70301E70F21
:1037A00088249658128DA8994A34E20800E80B77CD
:1037B0002C4E6D38BA85D300E90D882416CD3239E8
:1037C000B9506C2400EA0C88249E58ED709089D57D
:1037D00000EB1087245E3818C914924A23B1D80828
:1037E00000EC0E882416910E3B882594109104ED70
:1037F0000E782C465822138B9465127100EE0C58EB
:10380000345E584C9A50243100EF0D882496586845
:10381000321D0E244D00F00E8526CE24168CC56474
:1038200071500800F10F8824DEB06439CC6629D9C4
:10383000224900F210882476443691A489A5921476
:10384000D93802F3108824162D38A403E2803824D6
:103850000E2101F40B8824EEC65828385D05F50DBD
:103860008525566C520A862AB31000F60E58345637
:103870009A4872888864A11000F7138824CE1C200F
:1038800014452521494424894C52C600F80F882448
:10389000C6B44A124D283209494251F9118824967A
:1038A00029428A90E2804AA412A95C00FA0D683489
:1038B0006E1C20B35864A13800FB0F782CC6345618
:1038C000A2C4017140306402FC1088249E6C52AB8B
:1038D0005142A3D02C229501FD1387247630128CFF
:1038E000842249918824459222C900FE0B852556E1
:1038F00068541A053301FF0F87254E44168E8CC27B
:10390000114A741A0500000004FFFF01001087250A
:103910004E84128E8CC21159741A0501010F782C35
:10392000C641123C4C828749F02001020B562D966D
:10393000C84222A50001030D662D46302423D14440
:10394000C10001040B8724C621AAEBE11001050E7A
:10395000772CC630140BC9DA88120001060D473CDB
:10396000862825141A8544010107158824162D1868
:1039700009A98422925044248A0463240001080F78
:10398000772C46292A8C844451E9210001090E88AC
:1039900024C64172885864870F05010A0D8824C621
:1039A00041248A89752501010B0F772C468412A1C9
:1039B000442C35A93804010C0D772C665429E242B9
:1039C000895000010D118724D670168D4544216958
:1039D00024161B01010E0F782C76E4108EC3C287CB
:1039E000481800010F118724D6E80EC914498A240B
:1039F00045922A0001101187248E28240A8942A2A8
:103A0000902836071D01110F782C86904542915061
:103A1000D421870001120F782C8690A20E39C42180
:103A20002A4401011310782CC6210E51A1482812F6
:103A300022510001140C583486C97238444E0001DA
:103A4000151188245E5822215922954849451804A9
:103A500001160C86255E50C4D2280D0101170B8477
:103A6000265EE87020C90201180F87245E7438931F
:103A7000C424A2CAE43001190D87244E251A07CDAB
:103A8000519500011A0D88246658B9541A4EC50084
:103A9000011B1188244E30329AD88834CB68128C9E
:103AA00000011C1087244634124B09DD62B7700CEC
:103AB00000011D108824D63016CA129924659399E6
:103AC00005011E118824D630168A462293D4504C04
:103AD000661600000000003C3C00181800000000C2
:103AE000000018183C7EC33C3C001818110003036A
:103AF00004040303050808000008000800000C0087
:103B00000000D9400C682CC6251A89AE462E00410B
:103B10000D88249E94C86639C4813200420E8824E0
:103B20009ED06419992626A30C00430C742E8E286F
:103B3000448A45262200440B762D968C723898488C
:103B400002450B7724761C269C2D4A01460C5834DE
:103B50005E584C9A50243100470E87245E74389387
:103B6000C424A2CAE430480C88246658B9541A4EBA
:103B7000C500490A682CC6E5E14172014A0E852557
:103B80005650228A8C26A2902C044B0E8824166D47
:103B900014A1758B8C6224004C0A8724C6EF8043E5
:103BA000E5104D0C85259664689CCC2121004E10B3
:103BB00087245E3818C914924A23B1D808004F10E0
:103BC0008824162D38A403E28038240E2101500CDD
:103BD00087244E251A07CD51950000000004FFFFF1
:103BE0000000085C045C11241FBECFEFD1E2DEBFF1
:103BF000CDBF00E00CBF2AE0AAE9B5E001C01D92EC
:103C0000A83FB207E1F715E0A0E0B2E0E6E8FEEC7D
:103C100000E00BBF02C007900D92AA39B107D9F797
:103C20001DE1C2EFDDE100E006C021970109802F10
:103C3000FE010E94DB64C13FD10780E00807A9F7BD
:103C40000E94C8540C9432670C9400002F923F924B
:103C50004F925F926F927F928F929F92AF92BF929C
:103C6000CF92DF92EF92FF920F931F93CF93DF9348
:103C7000CDB7DEB7CB56D1090FB6F894DEBF0FBE75
:103C8000CDBF2DB73EB7AB963FAF2EAFAB97212C34
:103C9000312CA1014D54574FA9965FAF4EAFA99754
:103CA000FA0185A1882309F427C68091B80890916C
:103CB000B908F2E02F16310409F4DEC034F431E023
:103CC0002316310409F452C00AC043E0241631041B
:103CD00009F43CC154E02516310409F444C29C01A6
:103CE000277F009779F08530910561F02330310509
:103CF00049F08331910531F0AC0145515109423011
:103D0000510538F44091B708442319F041504093CD
:103D1000B708215031092230310548F09C0120516B
:103D200031092230310518F08731910549F420918D
:103D3000B708222311F40C94593021502093B7086E
:103D40008430910551F09C012C503109233031050C
:103D500020F00697039708F07CC28091B70888236B
:103D600009F477C281508093B70873C2009759F461
:103D70008091B708811159C03092B9082092B808D3
:103D80001092B70866C28130910569F48091B70836
:103D9000811162C082E090E09093B9088093B808E6
:103DA0001092B70856C28230910569F48091B70825
:103DB00081112FC086E090E09093B9088093B808F5
:103DC0001092B70846C28630910509F0C3C58091AC
:103DD000B70881111AC0CE01855A9F4F0E947245C3
:103DE0008CE0FE01E55AFF4FA1EBB6E001900D9289
:103DF0008A95E1F70E948C4C87E090E09093B90897
:103E00008093B8081092B70824C2813009F021C20B
:103E1000C1CF813009F01DC288E090E09093B908CD
:103E20008093B8081092B70814C2813049F484E036
:103E300090E09093B9088093B8081092B70809C22F
:103E4000823009F006C285E090E09093B908809333
:103E5000B8081092B708FDC1813009F0FAC110927C
:103E6000C5051092C40583E090E09093B908809353
:103E7000B8081092B708EDC1009749F0833091055A
:103E800031F09C01285031092430310538F420915B
:103E9000B708223019F02F5F2093B7089C012150FA
:103EA00031092230310540F08531910529F0255046
:103EB00031092230310538F42091B708213071F0F2
:103EC0002F5F2093B7088C30910559F42091B708E3
:103ED0002130D1F02F5F2093B7080EC08C309105B0
:103EE00059F09C01205131092230310578F32650D8
:103EF00031092230310550F38D30910541F4209184
:103F0000B708233059F419C08D30910539F09C0160
:103F1000245031092230310520F4F1CF2F5F209356
:103F2000B7088E30910529F42091B708243051F458
:103F300090C1439709F08DC1F7CF8E30910511F0F4
:103F40000C9460302F5F2093B70883C1009739F03D
:103F50008130910539F41092B9081092B808109286
:103F6000B7089EC08230910519F481E090E005C049
:103F70008630910539F482E090E09093B9088093FF
:103F8000B808EDCF9C01285031092430310518F4D0
:103F900082E090E037C08430910541F41092B90876
:103FA0001092B80881E08093B7087AC085309105F7
:103FB00031F41092B9081092B80882E0F4CF8C3036
:103FC000910519F485E090E0D8CF8631910561F430
:103FD0008091C4059091C50501969093C505809385
:103FE000C40583E090E0C9CF8731910581F48091C9
:103FF000C4059091C50501969093C5058093C405AD
:1040000083E090E09093B9088093B808CBCF8D30CF
:104010009105E1F48091B70881110BC08091A10551
:1040200081508093A1058F3FD9F587E18093A10549
:1040300037C08130A9F58091A00581508093A005FB
:104040008F3F71F58BE38093A0052AC00E9741F551
:104050008091B70881110BC080919F05815080939A
:104060009F0581111DC08FE180939F0519C081308C
:1040700059F480919E05815080939E05811110C056
:104080008CE080939E050CC0823051F480919D0598
:10409000815080939D058F3F19F483E680939D05A1
:1040A0008091B8089091B9088331910549F58091C4
:1040B000B708813079F018F08230B9F0CAC0809129
:1040C0009C05815018F080939C05C3C089E08093C3
:1040D0009C05BFC080919B05815018F080939B0583
:1040E000B8C089E080939B05B4C080919A05815047
:1040F00018F080939A05ADC089E080939A05A9C015
:104100008F30910551F484E090E09093B90880934A
:10411000B80881E08093B7089CC08231910549F4CA
:1041200084E090E09093B9088093B8081092B708A3
:1041300090C08431910551F484E090E09093B908E7
:104140008093B80882E08093B70883C0459709F050
:1041500080C084E090E09093B9088093B80883E031
:104160008093B70876C08D309105D9F48091B70857
:10417000811109C08091A1058F5F883108F4E7C3E0
:104180001092A10566C0813009F063C08091A0053E
:104190008F5F8C3318F48093A0055BC01092A0054C
:1041A00058C08E30910559F58091B70881110CC027
:1041B00080919F058F5F803218F480939F0549C0DE
:1041C00081E080939F0545C0813061F480919E0518
:1041D0008F5F8D3018F480939E053BC081E0809303
:1041E0009E0537C08230A9F580919D058F5F84368A
:1041F00018F480939D052DC010929D052AC0439709
:1042000041F58091B708813079F018F08230B9F02B
:1042100020C080919C058F5F8A3018F480939C05A4
:1042200018C010929C0515C080919B058F5F8A3045
:1042300018F480939B050DC010929B050AC08091D5
:104240009A058F5F8A3018F480939A0502C0109205
:104250009A050E94574D81E499E10E944B5080914C
:10426000B8089091B9088730910571F02CF4069741
:10427000D1F488E693E00DC08631910541F047976F
:1042800091F480E893E005C081E793E002C088E7FD
:1042900093E00E94504D8093C2068CE693E00E940A
:1042A000504D8093BF062091C20680E490E0821BAF
:1042B000910997FD0196959587959093C1068093F6
:1042C000C0062091BF0680E490E0821B910997FD13
:1042D000019695958795805C9F4F9093BE0680933D
:1042E000BD0681E499E10E944B5087E893E00E946B
:1042F000504D80938F078EE893E00E94504D80933D
:10430000910785E993E00E94504D8093900790912A
:104310008F072BE230E0291B310937FF02C02F5FE6
:104320003F4F3595279530939707209396079091A7
:1043300091072BE230E0291B310937FF02C02F5FC4
:104340003F4F35952795255D3F4F30939507209337
:1043500094072AE230E0A901481B5109CA0157FD20
:104360000196959587958A5A9F4F909393078093CE
:1043700092078091B8089091B9084097029740F051
:104380008091B8089091B9080D9709F0E9C06DC007
:1043900082EF99E00E941B388091B8089091B9088B
:1043A00080319105B9F0419759F58FE297E20E946B
:1043B0004B5041ED53E060E187E00E94614C45EED7
:1043C00053E06CE187E00E94614C49EF53E068E202
:1043D00082E214C08FE297E20E944B504AE953E018
:1043E00060E18DE00E94614C4CEA53E06CE183E1B6
:1043F0000E94614C4CEB53E068E284E00E94614C07
:1044000081E499E10E944B504EEC53E068E388E16F
:104410000E94614C44E054E068E380E40E94614CF7
:104420008091B8089091B9084097029788F48091DC
:10443000B708882339F0813059F42CE048E26EE265
:104440008EE304C02CE044E16EE286E10E94065057
:104450002CE34CE762E082E00E94065082EF99E094
:104460000E94E537811198CF8BCF82EF99E00E94AF
:104470001B3814E2F12E12E20DE2D02E8AE3C82E90
:1044800091E2B92E28E4E22E31E5A32E8FE99FE1D7
:104490000E944B504BE054E06EE080919C070E94DC
:1044A000614C88EB9AE00E944B508091A105F092FC
:1044B0006F0A1093700A8A3060F464E174E08EEE43
:1044C00099E00E94B43CD0926F0A1093700A8091D8
:1044D000A1050E94B9418091B708813009F452C00A
:1044E00008F046C000E028E144E262E282EF99E091
:1044F0000E942935C0926F0AB092700A6CE674E08F
:104500008EEE99E00E94B43C8091A005E0926F0A83
:104510001093700A8A3060F464E174E08EEE99E0E2
:104520000E94B43CA0926F0A1093700A8091A0057B
:104530000E94B94181E499E10E944B504EEC53E056
:1045400068E38AE10E94614C44E054E068E382E45D
:104550000E94614C82EF99E00E94E537811196CF6D
:104560008091B8089091B9080E9709F0B9C016C0AB
:10457000823069F0833009F0BDCF2CE048E26EE272
:1045800080E409C000E028E144E266E4AFCF2CE01B
:1045900044E16EE288E10E940650ACCF82EF99E0E0
:1045A0000E941B3842E1F42E12E25BE1B52E69E273
:1045B000A62E71E2E72EE7E3DE2EFCE49F2EAAE5AD
:1045C000CA2EB3E68B2E8FE99FE10E944B5046E145
:1045D00054E06EE080919C070E94614C88EB9AE069
:1045E0000E944B5080919F05F0926F0A1093700AC1
:1045F0008A3060F464E174E08EEE99E00E94B43C8D
:10460000B0926F0A1093700A80919F050E94B94181
:104610008091B708823009F47DC008F071C0811123
:1046200067C000E028E144E260E182EF99E00E9487
:104630002935A0926F0AE092700A6BE273E08EEE69
:1046400099E00E94B43C80919E05D0926F0A10932D
:10465000700A8A3068F464E174E08EEE99E00E949A
:10466000B43C80E480936F0A1093700A80919E0599
:104670000E94B94190926F0AE092700A6BE273E077
:104680008EEE99E00E94B43C80919D05C0926F0A25
:104690001093700A8A3060F464E174E08EEE99E061
:1046A0000E94B43C80926F0A1093700A80919D051D
:1046B0000E94B94181E499E10E944B504EEC53E0D5
:1046C00068E38AE10E94614C44E054E068E382E4DC
:1046D0000E94614C82EF99E00E94E537811173CF0F
:1046E0008091B8089091B908439709F084C01EC022
:1046F000813009F09ECF00E028E144E265E395CFE8
:10470000833069F0843009F094CF2CE048E26EE207
:1047100080E409C000E028E144E268E586CF2CE0AF
:1047200044E16EE288E10E94065083CF82EF99E077
:104730000E941B3888E2E82E12E296E3D92E24E488
:10474000C22E32E5F32E8FE99FE10E944B504FE1DC
:1047500054E06EE080919C070E94614C88EB9AE0E7
:104760000E944B50E0926F0A1093700A80919C0552
:104770000E94B941D0926F0A1093700A80919B05F4
:104780000E94B941C0926F0A1093700A80919A05F5
:104790000E94B9418091B708823009F44FC008F0F7
:1047A00044C081113BC000E02CE044E267E282EFAC
:1047B00099E00E94293581E499E10E944B50F092E2
:1047C0006F0A1093700A6AE274E08EEE99E00E941C
:1047D000B43C4EEC53E068E38AE10E94614C44E053
:1047E00054E068E382E40E94614C82EF99E00E9409
:1047F000E5378111A8CF8091B8089091B908089742
:1048000049F54091890650918A0660918B06709116
:104810008C0680E296E00E94CF3F1CC0813059F6A2
:1048200000E02CE044E265E3C2CF833061F08430E5
:1048300011F62CE048E26EE280E409C000E02CE0D2
:1048400044E263E4B4CF2CE044E16EE288E10E94EC
:104850000650B1CF8091B8089091B9080A9761F4D9
:104860004091810650918206609183067091840682
:104870008CE095E00E94CF3F8091B8089091B908F4
:10488000099761F4409185065091860660918706EC
:104890007091880688EF93E00E94CF3F8091B8081E
:1048A0009091B9080B9761F440917D0650917E0676
:1048B00060917F067091800684EE92E00E94CF3F67
:1048C0008091C4059091C505892B49F48091A0057C
:1048D0008093A3058091A1058093A20508C08091D3
:1048E000A3058093A0058091A2058093A105A996B8
:1048F000EEADFFADA99715A2FFEF2F1A3F0A25E0F5
:104900002216310409F0C5C9AB964EAD5FADAB9729
:104910000FB6F8945EBF0FBE4DBFC559DF4F0FB63F
:10492000F894DEBF0FBECDBFDF91CF911F910F91E5
:10493000FF90EF90DF90CF90BF90AF909F908F90BF
:104940007F906F905F904F903F902F90089580934D
:10495000A1057FCC8730910501F58091B7088111C1
:1049600054CACE01855A9F4F0E9472458CE0FE01C9
:10497000E55AFF4FA5EAB6E001900D928A95E1F75E
:104980000E948C4C0E94BB4382E090E09093B90857
:104990008093B8081092B7085CCC8830910509F074
:1049A000D0C08091B70881111AC0CE01855A9F4F9F
:1049B0000E9472458CE0FE01E55AFF4FADE8B6E07B
:1049C00001900D928A95E1F70E948C4C8091F70539
:1049D0008F5F8093F70581E08093B7083ACC8130F0
:1049E00009F077C08BEE95E00E9472450E948C4CD6
:1049F00020918D0630918E0640918F065091900641
:104A00006091EB057091EC058091ED059091EE05BC
:104A10000E9439622B013C0120919106309192064F
:104A200040919306509194066091EF057091F005C6
:104A30008091F1059091F2050E9439624B015C0171
:104A400020919506309196064091970650919806D0
:104A50006091F3057091F4058091F5059091F6054C
:104A60000E9439626B017C01A3019201C301B20172
:104A70000E9456612B013C01A5019401C501B401BE
:104A80000E9456619B01AC01C301B2010E943A62CF
:104A90004B015C01A7019601C701B6010E94566156
:104AA0009B01AC01C501B4010E943A620E940F64EF
:104AB0006093890670938A0680938B0690938C0688
:104AC0008091EA058F5F8093EA0582E08093B708C2
:104AD000C0CB823009F0BDCB8091F705882321F04F
:104AE0008091EA05811120C020E030E0A9016091A9
:104AF000890670918A0680918B0690918C060E949F
:104B0000F160811111C00E94684C68EE73E080E092
:104B100090E00E94EC3D88E090E09093B90880938B
:104B2000B8081092B70895CB89E090E09093B90847
:104B30008093B8081092B7081092F7051092EA0512
:104B400088CB8A30910509F0C5C08091B7088111E2
:104B50000FC08BEE95E00E9472450E948C4C8091B4
:104B6000F7058F5F8093F70581E08093B70871CBDD
:104B7000813009F077C08EED95E00E9472450E9469
:104B80008C4C2091EB053091EC054091ED05509156
:104B9000EE056091DE057091DF058091E005909152
:104BA000E1050E9439622B013C012091EF05309113
:104BB000F0054091F1055091F2056091E205709188
:104BC000E3058091E4059091E5050E9439624B016F
:104BD0005C012091F3053091F4054091F505509169
:104BE000F6056091E6057091E7058091E8059091E2
:104BF000E9050E9439626B017C01A3019201C301A6
:104C0000B2010E9456612B013C01A5019401C5012E
:104C1000B4010E9456619B01AC01C301B2010E9424
:104C20003A624B015C01A7019601C701B6010E94DF
:104C300056619B01AC01C501B4010E943A620E9419
:104C40000F6460938106709382068093830690932D
:104C500084068091EA058F5F8093EA0582E0809365
:104C6000B708F7CA823009F0F4CA8091F7058823A3
:104C700021F08091EA05811120C020E030E0A901F7
:104C800060918106709182068091830690918406DE
:104C90000E94F160811111C00E94684C68EE73E0BF
:104CA00080E090E00E94EC3D8AE090E09093B908AB
:104CB0008093B8081092B708CCCA8BE090E090932C
:104CC000B9088093B8081092B7081092F7051092AF
:104CD000EA05BFCA8930910509F0D0C08091B708B4
:104CE00081111AC0CE01855A9F4F0E9472458CE0F7
:104CF000FE01E55AFF4FA9E9B6E001900D928A95B1
:104D0000E1F70E948C4C8091F7058F5F8093F70547
:104D100081E08093B7089DCA813009F077C082EDA9
:104D200095E00E9472450E948C4C2091990630912A
:104D30009A0640919B0650919C066091D205709115
:104D4000D3058091D4059091D5050E9439622B013D
:104D50003C0120919D0630919E0640919F06509106
:104D6000A0066091D6057091D7058091D8059091E5
:104D7000D9050E9439624B015C012091A106309156
:104D8000A2064091A3065091A4066091DA057091A5
:104D9000DB058091DC059091DD050E9439626B0195
:104DA0007C01A3019201C301B2010E9456612B0153
:104DB0003C01A5019401C501B4010E9456619B010B
:104DC000AC01C301B2010E943A624B015C01A70130
:104DD0009601C701B6010E9456619B01AC01C50155
:104DE000B4010E943A620E940F646093850670933A
:104DF000860680938706909388068091EA058F5FE8
:104E00008093EA0582E08093B70823CA823009F0D4
:104E100020CA8091F705882321F08091EA0581114D
:104E200020C020E030E0A9016091850670918606DF
:104E300080918706909188060E94F160811111C0CF
:104E40000E94684C68EE73E080E090E00E94EC3DC8
:104E500089E090E09093B9088093B8081092B70861
:104E6000F8C98AE090E09093B9088093B80810924E
:104E7000B7081092F7051092EA05EBC98B3091053F
:104E800009F0C8C08091B70881110FC082ED95E08C
:104E90000E9472450E948C4C8091F7058F5F809331
:104EA000F70581E08093B708D4C9813009F077C055
:104EB00086EC95E00E9472450E948C4C2091D205B0
:104EC0003091D3054091D4055091D5056091C60528
:104ED0007091C7058091C8059091C9050E943962FB
:104EE0002B013C012091D6053091D7054091D80582
:104EF0005091D9056091CA057091CB058091CC0580
:104F00009091CD050E9439624B015C012091DA0538
:104F10003091DB054091DC055091DD056091CE05B7
:104F20007091CF058091D0059091D1050E94396292
:104F30006B017C01A3019201C301B2010E94566181
:104F40002B013C01A5019401C501B4010E945661E9
:104F50009B01AC01C301B2010E943A624B015C01AA
:104F6000A7019601C701B6010E9456619B01AC01E1
:104F7000C501B4010E943A620E940F6460937D06ED
:104F800070937E0680937F06909380068091EA0559
:104F90008F5F8093EA0582E08093B7085AC9823018
:104FA00009F057C98091F705882321F08091EA051F
:104FB000811120C020E030E0A90160917D06709150
:104FC0007E0680917F06909180060E94F16081119B
:104FD00011C00E94684C68EE73E080E090E00E948F
:104FE000EC3D8BE090E09093B9088093B808109264
:104FF000B7082FC90E94BB431092F7051092EA052B
:1050000082E090E09093B9088093B80881E08093A3
:10501000B7081FC98530910569F48091B7088111DF
:10502000FBC08CE090E09093B9088093B808109290
:10503000B7080FC98C309105C9F48091B708811168
:1050400009C080E190E09093B9088093B80810926D
:10505000B708FFC8813009F0FCC881E190E0909367
:10506000B9088093B8081092B708F3C88031910549
:1050700009F0F5C08091B7088111CAC082EF99E0AC
:105080000E941B3882E09BE20E944B5041EE52E0AE
:1050900061E18EE00E94614C40EF52E064E28AE2FE
:1050A0000E94614C82EF99E00E94E5378111EACFBE
:1050B00068EE73E080E090E00E94EC3D04EF11E0C8
:1050C000CE0101960E944D402091C3063091C40646
:1050D0004091C5065091C6066091CF067091D006EA
:1050E0008091D1069091D2060E943A622B013C0138
:1050F0006093CF067093D0068093D1069093D2062A
:105100002091C7063091C8064091C9065091CA0641
:105110006091D3067091D4068091D5069091D60601
:105120000E943A624B015C016093D3067093D406EF
:105130008093D5069093D6062091CB063091CC066D
:105140004091CD065091CE066091D7067091D80659
:105150008091D9069091DA060E943A626B017C0137
:105160006093D7067093D8068093D9069093DA0699
:105170000150110909F0A4CF20E030E04AEF53E4D8
:10518000C301B2010E9403636093CF067093D006FF
:105190008093D1069093D20620E030E04AEF53E4AA
:1051A000C501B4010E9403636093D3067093D406D3
:1051B0008093D5069093D60620E030E04AEF53E482
:1051C000C701B6010E9403636093D7067093D806A7
:1051D0008093D9069093DA0610928E0710928D076D
:1051E0006FEC76E080E090E00E94513880918D076E
:1051F00090918E070C9690938E0780938D078CE08C
:1052000090E09093B9088093B8081092B70821C82D
:10521000813009F01EC805CF813049F48DE090E05F
:105220009093B9088093B8081092B70812C88230DA
:1052300049F48EE090E09093B9088093B8081092FA
:10524000B70807C8833009F004C883E190E0909361
:10525000B9088093B8081092B7080C9429218131BD
:10526000910509F076C18091B708811164C182EF80
:1052700099E00E941B3882E09BE20E944B5004E3BD
:1052800017E02CE348E762E082E00E94924F82EF51
:1052900099E00E94E5378111EECF68EE73E080E07F
:1052A00090E00E94EC3D06E910E0CE0101960E94DC
:1052B0000B41C090C306D090C406E090C506F090A4
:1052C000C60620912F073091300740913107509149
:1052D0003207C701B6010E94F16087FF08C0C09283
:1052E0002F07D0923007E0923107F09232072091D9
:1052F0003B0730913C0740913D0750913E07C70165
:10530000B6010E94FA63181644F4C0923B07D0928B
:105310003C07E0923D07F0923E07C090C706D09050
:10532000C806E090C906F090CA0620913307309174
:1053300034074091350750913607C701B6010E94E6
:10534000F16087FF08C0C0923307D0923407E09223
:105350003507F092360720913F0730914007409182
:10536000410750914207C701B6010E94FA6318161F
:1053700044F4C0923F07D0924007E0924107F09278
:105380004207C090CB06D090CC06E090CD06F090BE
:10539000CE06209137073091380740913907509158
:1053A0003A07C701B6010E94F16087FF08C0C092AA
:1053B0003707D0923807E0923907F0923A072091E8
:1053C0004307309144074091450750914607C70174
:1053D000B6010E94FA63181644F4C0924307D092B3
:1053E0004407E0924507F092460764E670E080E0EB
:1053F00090E00E94EC3D0150110909F056CF209138
:105400003B0730913C0740913D0750913E0760912A
:105410002F077091300780913107909132070E94D9
:105420003A6220E030E040E05FE30E945661609322
:105430004707709348078093490790934A07209144
:105440003F073091400740914107509142076091DA
:1054500033077091340780913507909136070E9489
:105460003A6220E030E040E05FE30E9456616093E2
:105470004B0770934C0780934D0790934E072091F4
:10548000430730914407409145075091460760918A
:105490003707709138078091390790913A070E9439
:1054A0003A6220E030E040E05FE30E9456616093A2
:1054B0004F0770935007809351079093520767E40A
:1054C00077E080918D0790918E070E9451388091EE
:1054D0008D0790918E070C9690938E0780938D0781
:1054E00082EF99E00E941B3882E09BE20E944B50C1
:1054F00041EE52E061E18EE00E94614C40EF52E0EB
:1055000064E28AE20E94614C82EF99E00E94E537F2
:105510008111EACF68EE73E080E090E00E94EC3DFC
:105520008CE090E09093B9088093B80881E0809374
:10553000B7080C942921813011F00C9429212CE01A
:1055400030E03093B9082093B8088093B7080C94E2
:1055500029218D30910509F087C08091B7088230EC
:1055600009F073C01091A10588E60E94E04E82E028
:1055700090E00E94DB4E0E94354F61E070E088E6CB
:1055800090E00E94EA4E87EA98E00E94923A86FFF5
:105590001CC061E01C3010F460E001C01C5011110F
:1055A00001C01CE070E0A5E0660F771FAA95E1F747
:1055B000262F2064812F6AE00E949A64E0E18E9F8A
:1055C000900D1124622F692B0AC0812F6AE00E947E
:1055D0009A64692FF0E18F9F600D11246F7B88E63C
:1055E000AC966FAFAC970E94E04E82E090E00E94D4
:1055F000DB4EAC966FADAC9787EA98E00E94DD3A3F
:105600000E94354F1091A00588E60E94E04E81E08F
:1056100090E00E94DB4E812F6AE00E949A64692F1D
:1056200020E1829F600D112487EA98E00E94DD3A14
:105630000E94354F85E090E09093B9088093B808B8
:1056400081E08093B7080C942921833011F00C94E9
:10565000292185E090E09093B9088093B80881E013
:105660008093B7080C9429218E30910509F068C009
:105670008091B708833009F054C000919F0588E6F7
:105680000E94E04E84E090E00E94DB4E1AE0802F02
:10569000612F0E949A64692F30E1839F600D11246D
:1056A00087EA98E00E94DD3A0E94354F00919E05FE
:1056B00088E60E94E04E85E090E00E94DB4E802F5D
:1056C000612F0E949A64692F40E1849F600D11242C
:1056D00087EA98E00E94DD3A0E94354F00919D05CF
:1056E00088E60E94E04E86E090E00E94DB4E802F2C
:1056F000612F0E949A64692F50E1859F600D1124EB
:1057000087EA98E00E94DD3A0E94354F85E090E0FC
:105710009093B9088093B80882E08093B7080C94FE
:105720002921843011F00C94292185E090E0909398
:10573000B9088093B80882E08093B7080C942921B7
:105740008330910509F044C08091B70881110AC0E7
:1057500086E190E09093B9088093B8081092B7085A
:105760000C942921813051F487E190E09093B9089D
:105770008093B8081092B7080C942921823011F058
:105780000C9429211092C5051092C40510926D0643
:1057900010926E0610926F061092700610927106AB
:1057A000109272061092730610927406109275068B
:1057B00010927606109277061092780681E090E0BB
:1057C0009093B9088093B8088093B7080C94292166
:1057D0008631910509F04BC28091B708811130C222
:1057E0008DB69EB6CE0143960E944B4A6AEF72E098
:1057F000CE0101960E948B3C6AEF72E0CE010796C3
:105800000E948B3C6AEF72E0CE010D960E948B3CA9
:105810004B895C896D897E8922E0CE014F960E947A
:10582000283CBE01615E7F4FCE0101960E94D13BB4
:10583000CE014F960E94233C4F89588D698D7A8DF9
:1058400022E0CE014F960E94283CBE01615E7F4F50
:10585000CE0107960E94D13BCE014F960E94233C79
:105860004B8D5C8D6D8D7E8D22E0CE014F960E941A
:10587000283CBE01615E7F4FCE010D960E94D13B58
:10588000CE014F960E94233CBE016F5F7F4FCE0139
:105890004F960E94833C67EF72E0CE014F960E94C4
:1058A000943BBC01CE0101960E940E3CCE014F9666
:1058B0000E94233CBE01695F7F4FCE014F960E943C
:1058C000833C67EF72E0CE014F960E94943BBC018F
:1058D000CE0107960E940E3CCE014F960E94233CBB
:1058E000BE01635F7F4FCE014F960E94833C69EFFC
:1058F00072E0CE014F960E94943BBC01CE010D9602
:105900000E940E3CCE014F960E94233CBE016F5F69
:105910007F4FCE0143960E94833CBE01695F7F4F5B
:10592000CE0143960E94AB3BBC01CE018B5A9F4FE8
:105930000E94833CCE0143960E94233CBE016B5AD9
:105940007F4FCE0143960E94833CBE01635F7F4F31
:10595000CE0143960E94AB3BBC01CE018B5A9F4FB8
:105960000E940E3CCE0143960E94233C6B964EADA6
:105970005FAD6B974F5F5F4F8DB79EB7841B950BE5
:105980000FB6F8949EBF0FBE8DBF0DB71EB70F5F49
:105990001F4FB801CE018B5A9F4F0E9499534AE086
:1059A00060919F05CE01815B9F4F0E94573C4AE06A
:1059B0006091A105CE01875B9F4F0E94573C4AE052
:1059C0006091A005CE018D5B9F4F0E94573CE091F6
:1059D0009E058E2F90E0FC013197EC30F10568F5C3
:1059E0008827EE58FF4F8F4F0C94DB646BEF72E00B
:1059F00020C06FEF72E01DC063E073E01AC067E083
:105A000073E017C06BE073E014C06FE073E011C087
:105A100063E173E00EC067E173E00BC06BE173E01C
:105A200008C06FE173E005C063E273E002C067E2A3
:105A300073E085EF98E00E94BC3BADB6BEB66BE26A
:105A400073E0CE01CD960E948B3C6DE273E0CE01F7
:105A5000C7960E948B3C6FE273E0CE01C1960E9414
:105A60008B3C64E373E0CE018B960E948B3CBE01BD
:105A7000635C7F4FCE0143960E94833C65EF78E0E4
:105A8000CE0143960E94AB3BBE01615B7F4F0E94FB
:105A9000AB3BBC01CE0185960E94833CCE01439670
:105AA0000E94233C49A55AA54F5F5F4FEDB7FEB753
:105AB000E41BF50B0FB6F894FEBF0FBEEDBF2DB77C
:105AC0003EB72F5F3F4F7901B901CE0185960E9405
:105AD0009953F092AB05E092AA05BE01655D7F4F38
